{"abi":[{"type":"constructor","inputs":[{"name":"admin","type":"address","internalType":"address"},{"name":"registrar","type":"address","internalType":"address"}],"stateMutability":"nonpayable"},{"type":"function","name":"DEFAULT_ADMIN_ROLE","inputs":[],"outputs":[{"name":"","type":"bytes32","internalType":"bytes32"}],"stateMutability":"view"},{"type":"function","name":"REGISTRAR_ROLE","inputs":[],"outputs":[{"name":"","type":"bytes32","internalType":"bytes32"}],"stateMutability":"view"},{"type":"function","name":"getProof","inputs":[{"name":"id","type":"bytes32","internalType":"bytes32"}],"outputs":[{"name":"","type":"tuple","internalType":"struct OptimIEraRegistry.OptimizationProof","components":[{"name":"optimizationId","type":"bytes32","internalType":"bytes32"},{"name":"manifestHash","type":"bytes32","internalType":"bytes32"},{"name":"storageRoot","type":"bytes32","internalType":"bytes32"},{"name":"originalPromptHash","type":"bytes32","internalType":"bytes32"},{"name":"optimizedPromptHash","type":"bytes32","internalType":"bytes32"},{"name":"evaluationHash","type":"bytes32","internalType":"bytes32"},{"name":"ownerRefHash","type":"bytes32","internalType":"bytes32"},{"name":"registrar","type":"address","internalType":"address"},{"name":"aggregateScore","type":"uint16","internalType":"uint16"},{"name":"createdAt","type":"uint64","internalType":"uint64"},{"name":"status","type":"uint8","internalType":"enum OptimIEraRegistry.ProofStatus"}]}],"stateMutability":"view"},{"type":"function","name":"getRoleAdmin","inputs":[{"name":"role","type":"bytes32","internalType":"bytes32"}],"outputs":[{"name":"","type":"bytes32","internalType":"bytes32"}],"stateMutability":"view"},{"type":"function","name":"grantRole","inputs":[{"name":"role","type":"bytes32","internalType":"bytes32"},{"name":"account","type":"address","internalType":"address"}],"outputs":[],"stateMutability":"nonpayable"},{"type":"function","name":"hasRole","inputs":[{"name":"role","type":"bytes32","internalType":"bytes32"},{"name":"account","type":"address","internalType":"address"}],"outputs":[{"name":"","type":"bool","internalType":"bool"}],"stateMutability":"view"},{"type":"function","name":"pause","inputs":[],"outputs":[],"stateMutability":"nonpayable"},{"type":"function","name":"paused","inputs":[],"outputs":[{"name":"","type":"bool","internalType":"bool"}],"stateMutability":"view"},{"type":"function","name":"proofId","inputs":[{"name":"optimizationId","type":"bytes32","internalType":"bytes32"},{"name":"manifestHash","type":"bytes32","internalType":"bytes32"},{"name":"storageRoot","type":"bytes32","internalType":"bytes32"},{"name":"originalPromptHash","type":"bytes32","internalType":"bytes32"},{"name":"optimizedPromptHash","type":"bytes32","internalType":"bytes32"},{"name":"evaluationHash","type":"bytes32","internalType":"bytes32"},{"name":"ownerRefHash","type":"bytes32","internalType":"bytes32"},{"name":"aggregateScore","type":"uint16","internalType":"uint16"}],"outputs":[{"name":"","type":"bytes32","internalType":"bytes32"}],"stateMutability":"pure"},{"type":"function","name":"registerProof","inputs":[{"name":"optimizationId","type":"bytes32","internalType":"bytes32"},{"name":"manifestHash","type":"bytes32","internalType":"bytes32"},{"name":"storageRoot","type":"bytes32","internalType":"bytes32"},{"name":"originalPromptHash","type":"bytes32","internalType":"bytes32"},{"name":"optimizedPromptHash","type":"bytes32","internalType":"bytes32"},{"name":"evaluationHash","type":"bytes32","internalType":"bytes32"},{"name":"ownerRefHash","type":"bytes32","internalType":"bytes32"},{"name":"aggregateScore","type":"uint16","internalType":"uint16"}],"outputs":[{"name":"id","type":"bytes32","internalType":"bytes32"}],"stateMutability":"nonpayable"},{"type":"function","name":"renounceRole","inputs":[{"name":"role","type":"bytes32","internalType":"bytes32"},{"name":"callerConfirmation","type":"address","internalType":"address"}],"outputs":[],"stateMutability":"nonpayable"},{"type":"function","name":"revokeProof","inputs":[{"name":"id","type":"bytes32","internalType":"bytes32"},{"name":"reasonHash","type":"bytes32","internalType":"bytes32"}],"outputs":[],"stateMutability":"nonpayable"},{"type":"function","name":"revokeRole","inputs":[{"name":"role","type":"bytes32","internalType":"bytes32"},{"name":"account","type":"address","internalType":"address"}],"outputs":[],"stateMutability":"nonpayable"},{"type":"function","name":"supportsInterface","inputs":[{"name":"interfaceId","type":"bytes4","internalType":"bytes4"}],"outputs":[{"name":"","type":"bool","internalType":"bool"}],"stateMutability":"view"},{"type":"function","name":"unpause","inputs":[],"outputs":[],"stateMutability":"nonpayable"},{"type":"function","name":"verifyProof","inputs":[{"name":"id","type":"bytes32","internalType":"bytes32"},{"name":"manifestHash","type":"bytes32","internalType":"bytes32"},{"name":"storageRoot","type":"bytes32","internalType":"bytes32"},{"name":"originalPromptHash","type":"bytes32","internalType":"bytes32"},{"name":"optimizedPromptHash","type":"bytes32","internalType":"bytes32"},{"name":"evaluationHash","type":"bytes32","internalType":"bytes32"},{"name":"ownerRefHash","type":"bytes32","internalType":"bytes32"},{"name":"aggregateScore","type":"uint16","internalType":"uint16"}],"outputs":[{"name":"","type":"bool","internalType":"bool"}],"stateMutability":"view"},{"type":"event","name":"Paused","inputs":[{"name":"account","type":"address","indexed":false,"internalType":"address"}],"anonymous":false},{"type":"event","name":"ProofRegistered","inputs":[{"name":"proofId","type":"bytes32","indexed":true,"internalType":"bytes32"},{"name":"optimizationId","type":"bytes32","indexed":true,"internalType":"bytes32"},{"name":"registrar","type":"address","indexed":true,"internalType":"address"},{"name":"manifestHash","type":"bytes32","indexed":false,"internalType":"bytes32"}],"anonymous":false},{"type":"event","name":"ProofRevoked","inputs":[{"name":"proofId","type":"bytes32","indexed":true,"internalType":"bytes32"},{"name":"reasonHash","type":"bytes32","indexed":false,"internalType":"bytes32"}],"anonymous":false},{"type":"event","name":"RoleAdminChanged","inputs":[{"name":"role","type":"bytes32","indexed":true,"internalType":"bytes32"},{"name":"previousAdminRole","type":"bytes32","indexed":true,"internalType":"bytes32"},{"name":"newAdminRole","type":"bytes32","indexed":true,"internalType":"bytes32"}],"anonymous":false},{"type":"event","name":"RoleGranted","inputs":[{"name":"role","type":"bytes32","indexed":true,"internalType":"bytes32"},{"name":"account","type":"address","indexed":true,"internalType":"address"},{"name":"sender","type":"address","indexed":true,"internalType":"address"}],"anonymous":false},{"type":"event","name":"RoleRevoked","inputs":[{"name":"role","type":"bytes32","indexed":true,"internalType":"bytes32"},{"name":"account","type":"address","indexed":true,"internalType":"address"},{"name":"sender","type":"address","indexed":true,"internalType":"address"}],"anonymous":false},{"type":"event","name":"Unpaused","inputs":[{"name":"account","type":"address","indexed":false,"internalType":"address"}],"anonymous":false},{"type":"error","name":"AccessControlBadConfirmation","inputs":[]},{"type":"error","name":"AccessControlUnauthorizedAccount","inputs":[{"name":"account","type":"address","internalType":"address"},{"name":"neededRole","type":"bytes32","internalType":"bytes32"}]},{"type":"error","name":"DuplicateProof","inputs":[{"name":"proofId","type":"bytes32","internalType":"bytes32"}]},{"type":"error","name":"EnforcedPause","inputs":[]},{"type":"error","name":"ExpectedPause","inputs":[]},{"type":"error","name":"InvalidHash","inputs":[]},{"type":"error","name":"InvalidReason","inputs":[]},{"type":"error","name":"InvalidScore","inputs":[]},{"type":"error","name":"InvalidStatus","inputs":[]},{"type":"error","name":"ProofNotFound","inputs":[{"name":"proofId","type":"bytes32","internalType":"bytes32"}]}],"bytecode":{"object":"0x608060405234801562000010575f80fd5b506040516200110138038062001101833981016040819052620000339162000179565b6001600160a01b03821615806200005157506001600160a01b038116155b156200006f576040516257c03760e51b815260040160405180910390fd5b6200007b5f83620000b1565b50620000a87fa0efc66573d4066f3bc90914639ba0940345fc68bbe2e63e667a329b46068f9b82620000b1565b505050620001af565b5f828152602081815260408083206001600160a01b038516845290915281205460ff1662000154575f838152602081815260408083206001600160a01b03861684529091529020805460ff191660011790556200010b3390565b6001600160a01b0316826001600160a01b0316847f2f8788117e7eff1d82e926ec794901d17c78024a50270940304540a733656f0d60405160405180910390a450600162000157565b505f5b92915050565b80516001600160a01b038116811462000174575f80fd5b919050565b5f80604083850312156200018b575f80fd5b62000196836200015d565b9150620001a6602084016200015d565b90509250929050565b610f4480620001bd5f395ff3fe608060405234801561000f575f80fd5b50600436106100fb575f3560e01c80635c975abb1161009357806391d148541161006357806391d1485414610206578063a217fddf14610219578063d547741f14610220578063f68e955314610233575f80fd5b80635c975abb146101cd5780637132f043146101d857806377aa792a146101eb5780638456cb59146101fe575f80fd5b80632f2ff15d116100ce5780632f2ff15d1461018a57806336568abe1461019f5780633f4ba83a146101b25780635c75793d146101ba575f80fd5b806301ffc9a7146100ff578063163cdd3f146101275780631b80bb3a14610148578063248a9ca314610168575b5f80fd5b61011261010d366004610d2f565b61025a565b60405190151581526020015b60405180910390f35b61013a610135366004610d5d565b610290565b60405190815260200161011e565b61015b610156366004610dc8565b61054b565b60405161011e9190610e13565b61013a610176366004610dc8565b5f9081526020819052604090206001015490565b61019d610198366004610eb5565b6106cb565b005b61019d6101ad366004610eb5565b6106f5565b61019d61072d565b6101126101c8366004610d5d565b610742565b60015460ff16610112565b61019d6101e6366004610eee565b6108fa565b61013a6101f9366004610d5d565b610a22565b61019d610abc565b610112610214366004610eb5565b610ace565b61013a5f81565b61019d61022e366004610eb5565b610af6565b61013a7fa0efc66573d4066f3bc90914639ba0940345fc68bbe2e63e667a329b46068f9b81565b5f6001600160e01b03198216637965db0b60e01b148061028a57506301ffc9a760e01b6001600160e01b03198316145b92915050565b5f7fa0efc66573d4066f3bc90914639ba0940345fc68bbe2e63e667a329b46068f9b6102bb81610b1a565b6102c3610b24565b8815806102ce575089155b806102d7575086155b806102e0575085155b806102e9575084155b806102f2575083155b1561030f576040516257c03760e51b815260040160405180910390fd5b60648361ffff16111561033557604051631556136560e01b815260040160405180910390fd5b6103458a8a8a8a8a8a8a8a610a22565b91505f8083815260026020819052604090912060070154600160f01b900460ff169081111561037657610376610ddf565b1461039c576040516312a97aeb60e31b8152600481018390526024015b60405180910390fd5b6040518061016001604052808b81526020018a8152602001898152602001888152602001878152602001868152602001858152602001336001600160a01b031681526020018461ffff1681526020014267ffffffffffffffff1681526020016001600281111561040e5761040e610ddf565b90525f83815260026020818152604092839020845181559084015160018201559183015182820155606083015160038301556080830151600483015560a0830151600583015560c0830151600683015560e083015160078301805461010086015161012087015167ffffffffffffffff16600160b01b0267ffffffffffffffff60b01b1961ffff909216600160a01b026001600160b01b03199093166001600160a01b0390951694909417919091179081168317825561014086015193919260ff60f01b191668ffffffffffffffffff60b01b199091161790600160f01b9084908111156104fe576104fe610ddf565b0217905550506040518a81523391508b9084907f402ca588118bb61290064105c61ae18ba6491e02924ca1fd92a4257f826034919060200160405180910390a45098975050505050505050565b6105a760408051610160810182525f80825260208201819052918101829052606081018290526080810182905260a0810182905260c0810182905260e08101829052610100810182905261012081018290529061014082015290565b5f828152600260208190526040822060070154600160f01b900460ff16908111156105d4576105d4610ddf565b036105f557604051630603114960e01b815260048101839052602401610393565b5f828152600260208181526040928390208351610160810185528154815260018201549281019290925280830154938201939093526003830154606082015260048301546080820152600583015460a0820152600683015460c082015260078301546001600160a01b03811660e0830152600160a01b810461ffff16610100830152600160b01b810467ffffffffffffffff16610120830152909291610140840191600160f01b900460ff16908111156106b1576106b1610ddf565b60028111156106c2576106c2610ddf565b90525092915050565b5f828152602081905260409020600101546106e581610b1a565b6106ef8383610b4a565b50505050565b6001600160a01b038116331461071e5760405163334bd91960e11b815260040160405180910390fd5b6107288282610bd9565b505050565b5f61073781610b1a565b61073f610c42565b50565b5f8881526002602081815260408084208151610160810183528154815260018201549381019390935280840154918301919091526003810154606083015260048101546080830152600581015460a0830152600681015460c083015260078101546001600160a01b03811660e0840152600160a01b810461ffff16610100840152600160b01b810467ffffffffffffffff166101208401528493610140840191600160f01b900460ff16908111156107fc576107fc610ddf565b600281111561080d5761080d610ddf565b90525090505f816101400151600281111561082a5761082a610ddf565b0361084b57604051630603114960e01b8152600481018b9052602401610393565b6002816101400151600281111561086457610864610ddf565b03610882576040516307a92f1960e51b815260040160405180910390fd5b8881602001511480156108985750878160400151145b80156108a75750868160600151145b80156108b65750858160800151145b80156108c55750848160a00151145b80156108d45750838160c00151145b80156108ec57508261ffff1681610100015161ffff16145b9a9950505050505050505050565b5f61090481610b1a565b61090c610b24565b8161092a576040516337b89b9360e21b815260040160405180910390fd5b5f838152600260208190526040822060070154600160f01b900460ff169081111561095757610957610ddf565b0361097857604051630603114960e01b815260048101849052602401610393565b60025f84815260026020819052604090912060070154600160f01b900460ff16908111156109a8576109a8610ddf565b036109c6576040516307a92f1960e51b815260040160405180910390fd5b5f83815260026020908152604091829020600701805460ff60f01b1916600160f11b179055905183815284917f19bd202ad52a8ae0c6aea02349127f49fb53309cf9b0857706b185dea9925907910160405180910390a2505050565b604080516101206020808301829052601e6101408401527f4f7074696d494572613a4f7074696d697a6174696f6e50726f6f663a56310000610160808501919091528385019c909c52606083019a909a52608082019890985260a081019690965260c086019490945260e085019290925261010084015261ffff169282019290925281518082039094018452610180019052815191012090565b5f610ac681610b1a565b61073f610c94565b5f918252602082815260408084206001600160a01b0393909316845291905290205460ff1690565b5f82815260208190526040902060010154610b1081610b1a565b6106ef8383610bd9565b61073f8133610ccf565b60015460ff1615610b485760405163d93c066560e01b815260040160405180910390fd5b565b5f610b558383610ace565b610bd2575f838152602081815260408083206001600160a01b03861684529091529020805460ff19166001179055610b8a3390565b6001600160a01b0316826001600160a01b0316847f2f8788117e7eff1d82e926ec794901d17c78024a50270940304540a733656f0d60405160405180910390a450600161028a565b505f61028a565b5f610be48383610ace565b15610bd2575f838152602081815260408083206001600160a01b0386168085529252808320805460ff1916905551339286917ff6391f5c32d9c69d2a47ea670b442974b53935d1edc7fd64eb21e047a839171b9190a450600161028a565b610c4a610d0c565b6001805460ff191690557f5db9ee0a495bf2e6ff9c91a7834c1ba4fdd244a5e8aa4e537bd38aeae4b073aa335b6040516001600160a01b03909116815260200160405180910390a1565b610c9c610b24565b6001805460ff1916811790557f62e78cea01bee320cd4e420270b5ea74000d11b0c9f74754ebdbfc544b05a25833610c77565b610cd98282610ace565b610d085760405163e2517d3f60e01b81526001600160a01b038216600482015260248101839052604401610393565b5050565b60015460ff16610b4857604051638dfc202b60e01b815260040160405180910390fd5b5f60208284031215610d3f575f80fd5b81356001600160e01b031981168114610d56575f80fd5b9392505050565b5f805f805f805f80610100898b031215610d75575f80fd5b883597506020890135965060408901359550606089013594506080890135935060a0890135925060c0890135915060e089013561ffff81168114610db7575f80fd5b809150509295985092959890939650565b5f60208284031215610dd8575f80fd5b5035919050565b634e487b7160e01b5f52602160045260245ffd5b60038110610e0f57634e487b7160e01b5f52602160045260245ffd5b9052565b5f61016082019050825182526020830151602083015260408301516040830152606083015160608301526080830151608083015260a083015160a083015260c083015160c083015260e0830151610e7560e08401826001600160a01b03169052565b506101008381015161ffff16908301526101208084015167ffffffffffffffff169083015261014080840151610ead82850182610df3565b505092915050565b5f8060408385031215610ec6575f80fd5b8235915060208301356001600160a01b0381168114610ee3575f80fd5b809150509250929050565b5f8060408385031215610eff575f80fd5b5050803592602090910135915056fea2646970667358221220297b7c8abb8eb6d6daa0b21d6dfe0773834030aead0d8271335382381e4735f664736f6c63430008180033","linkReferences":{}},"methodIdentifiers":{"DEFAULT_ADMIN_ROLE()":"a217fddf","REGISTRAR_ROLE()":"f68e9553","getProof(bytes32)":"1b80bb3a","getRoleAdmin(bytes32)":"248a9ca3","grantRole(bytes32,address)":"2f2ff15d","hasRole(bytes32,address)":"91d14854","pause()":"8456cb59","paused()":"5c975abb","proofId(bytes32,bytes32,bytes32,bytes32,bytes32,bytes32,bytes32,uint16)":"77aa792a","registerProof(bytes32,bytes32,bytes32,bytes32,bytes32,bytes32,bytes32,uint16)":"163cdd3f","renounceRole(bytes32,address)":"36568abe","revokeProof(bytes32,bytes32)":"7132f043","revokeRole(bytes32,address)":"d547741f","supportsInterface(bytes4)":"01ffc9a7","unpause()":"3f4ba83a","verifyProof(bytes32,bytes32,bytes32,bytes32,bytes32,bytes32,bytes32,uint16)":"5c75793d"},"id":28}